{
  "_format": "hh-sol-artifact-1",
  "contractName": "KieneNFT",
  "sourceName": "contracts/KieneNFT.sol",
  "abi": [
    {
      "inputs": [],
      "stateMutability": "nonpayable",
      "type": "constructor"
    },
    {
      "anonymous": false,
      "inputs": [
        {
          "indexed": true,
          "internalType": "address",
          "name": "account",
          "type": "address"
        },
        {
          "indexed": true,
          "internalType": "address",
          "name": "operator",
          "type": "address"
        },
        {
          "indexed": false,
          "internalType": "bool",
          "name": "approved",
          "type": "bool"
        }
      ],
      "name": "ApprovalForAll",
      "type": "event"
    },
    {
      "anonymous": false,
      "inputs": [
        {
          "indexed": true,
          "internalType": "address",
          "name": "operator",
          "type": "address"
        },
        {
          "indexed": true,
          "internalType": "address",
          "name": "from",
          "type": "address"
        },
        {
          "indexed": true,
          "internalType": "address",
          "name": "to",
          "type": "address"
        },
        {
          "indexed": false,
          "internalType": "uint256[]",
          "name": "ids",
          "type": "uint256[]"
        },
        {
          "indexed": false,
          "internalType": "uint256[]",
          "name": "values",
          "type": "uint256[]"
        }
      ],
      "name": "TransferBatch",
      "type": "event"
    },
    {
      "anonymous": false,
      "inputs": [
        {
          "indexed": true,
          "internalType": "address",
          "name": "operator",
          "type": "address"
        },
        {
          "indexed": true,
          "internalType": "address",
          "name": "from",
          "type": "address"
        },
        {
          "indexed": true,
          "internalType": "address",
          "name": "to",
          "type": "address"
        },
        {
          "indexed": false,
          "internalType": "uint256",
          "name": "id",
          "type": "uint256"
        },
        {
          "indexed": false,
          "internalType": "uint256",
          "name": "value",
          "type": "uint256"
        }
      ],
      "name": "TransferSingle",
      "type": "event"
    },
    {
      "anonymous": false,
      "inputs": [
        {
          "indexed": false,
          "internalType": "string",
          "name": "value",
          "type": "string"
        },
        {
          "indexed": true,
          "internalType": "uint256",
          "name": "id",
          "type": "uint256"
        }
      ],
      "name": "URI",
      "type": "event"
    },
    {
      "inputs": [],
      "name": "KieneGIF",
      "outputs": [
        {
          "internalType": "uint256",
          "name": "",
          "type": "uint256"
        }
      ],
      "stateMutability": "view",
      "type": "function"
    },
    {
      "inputs": [],
      "name": "KieneGIF2",
      "outputs": [
        {
          "internalType": "uint256",
          "name": "",
          "type": "uint256"
        }
      ],
      "stateMutability": "view",
      "type": "function"
    },
    {
      "inputs": [
        {
          "internalType": "address",
          "name": "account",
          "type": "address"
        },
        {
          "internalType": "uint256",
          "name": "id",
          "type": "uint256"
        }
      ],
      "name": "balanceOf",
      "outputs": [
        {
          "internalType": "uint256",
          "name": "",
          "type": "uint256"
        }
      ],
      "stateMutability": "view",
      "type": "function"
    },
    {
      "inputs": [
        {
          "internalType": "address[]",
          "name": "accounts",
          "type": "address[]"
        },
        {
          "internalType": "uint256[]",
          "name": "ids",
          "type": "uint256[]"
        }
      ],
      "name": "balanceOfBatch",
      "outputs": [
        {
          "internalType": "uint256[]",
          "name": "",
          "type": "uint256[]"
        }
      ],
      "stateMutability": "view",
      "type": "function"
    },
    {
      "inputs": [
        {
          "internalType": "address",
          "name": "account",
          "type": "address"
        },
        {
          "internalType": "address",
          "name": "operator",
          "type": "address"
        }
      ],
      "name": "isApprovedForAll",
      "outputs": [
        {
          "internalType": "bool",
          "name": "",
          "type": "bool"
        }
      ],
      "stateMutability": "view",
      "type": "function"
    },
    {
      "inputs": [
        {
          "internalType": "address",
          "name": "from",
          "type": "address"
        },
        {
          "internalType": "address",
          "name": "to",
          "type": "address"
        },
        {
          "internalType": "uint256[]",
          "name": "ids",
          "type": "uint256[]"
        },
        {
          "internalType": "uint256[]",
          "name": "amounts",
          "type": "uint256[]"
        },
        {
          "internalType": "bytes",
          "name": "data",
          "type": "bytes"
        }
      ],
      "name": "safeBatchTransferFrom",
      "outputs": [],
      "stateMutability": "nonpayable",
      "type": "function"
    },
    {
      "inputs": [
        {
          "internalType": "address",
          "name": "from",
          "type": "address"
        },
        {
          "internalType": "address",
          "name": "to",
          "type": "address"
        },
        {
          "internalType": "uint256",
          "name": "id",
          "type": "uint256"
        },
        {
          "internalType": "uint256",
          "name": "amount",
          "type": "uint256"
        },
        {
          "internalType": "bytes",
          "name": "data",
          "type": "bytes"
        }
      ],
      "name": "safeTransferFrom",
      "outputs": [],
      "stateMutability": "nonpayable",
      "type": "function"
    },
    {
      "inputs": [
        {
          "internalType": "address",
          "name": "operator",
          "type": "address"
        },
        {
          "internalType": "bool",
          "name": "approved",
          "type": "bool"
        }
      ],
      "name": "setApprovalForAll",
      "outputs": [],
      "stateMutability": "nonpayable",
      "type": "function"
    },
    {
      "inputs": [
        {
          "internalType": "bytes4",
          "name": "interfaceId",
          "type": "bytes4"
        }
      ],
      "name": "supportsInterface",
      "outputs": [
        {
          "internalType": "bool",
          "name": "",
          "type": "bool"
        }
      ],
      "stateMutability": "view",
      "type": "function"
    },
    {
      "inputs": [
        {
          "internalType": "uint256",
          "name": "_tokenid",
          "type": "uint256"
        }
      ],
      "name": "uri",
      "outputs": [
        {
          "internalType": "string",
          "name": "",
          "type": "string"
        }
      ],
      "stateMutability": "pure",
      "type": "function"
    }
  ],
  "bytecode": "0x60806040523480156200001157600080fd5b506040518060a001604052806062815260200162003729606291396200003d816200008c60201b60201c565b50620000623360018060405180602001604052806000815250620000a860201b60201c565b620000863360028060405180602001604052806000815250620000a860201b60201c565b62000ce9565b8060029080519060200190620000a49291906200059e565b5050565b600073ffffffffffffffffffffffffffffffffffffffff168473ffffffffffffffffffffffffffffffffffffffff1614156200011b576040517f08c379a0000000000000000000000000000000000000000000000000000000008152600401620001129062000854565b60405180910390fd5b60006200012d6200029060201b60201c565b9050600062000142856200029860201b60201c565b9050600062000157856200029860201b60201c565b905062000170836000898585896200036160201b60201c565b8460008088815260200190815260200160002060008973ffffffffffffffffffffffffffffffffffffffff1673ffffffffffffffffffffffffffffffffffffffff1681526020019081526020016000206000828254620001d1919062000907565b925050819055508673ffffffffffffffffffffffffffffffffffffffff16600073ffffffffffffffffffffffffffffffffffffffff168473ffffffffffffffffffffffffffffffffffffffff167fc3d58168c5ae7397731d063d5bbf3d657854427343f4c083240f7aacaa2d0f6289896040516200025192919062000898565b60405180910390a462000270836000898585896200036960201b60201c565b62000287836000898989896200037160201b60201c565b50505050505050565b600033905090565b60606000600167ffffffffffffffff811115620002de577f4e487b7100000000000000000000000000000000000000000000000000000000600052604160045260246000fd5b6040519080825280602002602001820160405280156200030d5781602001602082028036833780820191505090505b50905082816000815181106200034c577f4e487b7100000000000000000000000000000000000000000000000000000000600052603260045260246000fd5b60200260200101818152505080915050919050565b505050505050565b505050505050565b6200039d8473ffffffffffffffffffffffffffffffffffffffff166200057b60201b620007a51760201c565b1562000573578373ffffffffffffffffffffffffffffffffffffffff1663f23a6e6187878686866040518663ffffffff1660e01b8152600401620003e6959493929190620007aa565b602060405180830381600087803b1580156200040157600080fd5b505af19250505080156200043557506040513d601f19601f8201168201806040525081019062000432919062000665565b60015b620004e7576200044462000afd565b806308c379a01415620004a857506200045c62000c2d565b80620004695750620004aa565b806040517f08c379a00000000000000000000000000000000000000000000000000000000081526004016200049f91906200080e565b60405180910390fd5b505b6040517f08c379a0000000000000000000000000000000000000000000000000000000008152600401620004de9062000876565b60405180910390fd5b63f23a6e6160e01b7bffffffffffffffffffffffffffffffffffffffffffffffffffffffff1916817bffffffffffffffffffffffffffffffffffffffffffffffffffffffff19161462000571576040517f08c379a0000000000000000000000000000000000000000000000000000000008152600401620005689062000832565b60405180910390fd5b505b505050505050565b6000808273ffffffffffffffffffffffffffffffffffffffff163b119050919050565b828054620005ac9062000a04565b90600052602060002090601f016020900481019282620005d057600085556200061c565b82601f10620005eb57805160ff19168380011785556200061c565b828001600101855582156200061c579182015b828111156200061b578251825591602001919060010190620005fe565b5b5090506200062b91906200062f565b5090565b5b808211156200064a57600081600090555060010162000630565b5090565b6000815190506200065f8162000ccf565b92915050565b6000602082840312156200067857600080fd5b600062000688848285016200064e565b91505092915050565b6200069c8162000964565b82525050565b6000620006af82620008cf565b620006bb8185620008e5565b9350620006cd818560208601620009ce565b620006d88162000b22565b840191505092915050565b6000620006f082620008da565b620006fc8185620008f6565b93506200070e818560208601620009ce565b620007198162000b22565b840191505092915050565b600062000733602883620008f6565b9150620007408262000b40565b604082019050919050565b60006200075a602183620008f6565b9150620007678262000b8f565b604082019050919050565b600062000781603483620008f6565b91506200078e8262000bde565b604082019050919050565b620007a481620009c4565b82525050565b600060a082019050620007c1600083018862000691565b620007d0602083018762000691565b620007df604083018662000799565b620007ee606083018562000799565b8181036080830152620008028184620006a2565b90509695505050505050565b600060208201905081810360008301526200082a8184620006e3565b905092915050565b600060208201905081810360008301526200084d8162000724565b9050919050565b600060208201905081810360008301526200086f816200074b565b9050919050565b60006020820190508181036000830152620008918162000772565b9050919050565b6000604082019050620008af600083018562000799565b620008be602083018462000799565b9392505050565b6000604051905090565b600081519050919050565b600081519050919050565b600082825260208201905092915050565b600082825260208201905092915050565b60006200091482620009c4565b91506200092183620009c4565b9250827fffffffffffffffffffffffffffffffffffffffffffffffffffffffffffffffff0382111562000959576200095862000a70565b5b828201905092915050565b60006200097182620009a4565b9050919050565b60007fffffffff0000000000000000000000000000000000000000000000000000000082169050919050565b600073ffffffffffffffffffffffffffffffffffffffff82169050919050565b6000819050919050565b60005b83811015620009ee578082015181840152602081019050620009d1565b83811115620009fe576000848401525b50505050565b6000600282049050600182168062000a1d57607f821691505b6020821081141562000a345762000a3362000a9f565b5b50919050565b62000a458262000b22565b810181811067ffffffffffffffff8211171562000a675762000a6662000ace565b5b80604052505050565b7f4e487b7100000000000000000000000000000000000000000000000000000000600052601160045260246000fd5b7f4e487b7100000000000000000000000000000000000000000000000000000000600052602260045260246000fd5b7f4e487b7100000000000000000000000000000000000000000000000000000000600052604160045260246000fd5b600060033d111562000b1f5760046000803e62000b1c60005162000b33565b90505b90565b6000601f19601f8301169050919050565b60008160e01c9050919050565b7f455243313135353a204552433131353552656365697665722072656a6563746560008201527f6420746f6b656e73000000000000000000000000000000000000000000000000602082015250565b7f455243313135353a206d696e7420746f20746865207a65726f2061646472657360008201527f7300000000000000000000000000000000000000000000000000000000000000602082015250565b7f455243313135353a207472616e7366657220746f206e6f6e2d4552433131353560008201527f526563656976657220696d706c656d656e746572000000000000000000000000602082015250565b600060443d101562000c3f5762000ccc565b62000c49620008c5565b60043d036004823e80513d602482011167ffffffffffffffff8211171562000c7357505062000ccc565b808201805167ffffffffffffffff81111562000c93575050505062000ccc565b80602083010160043d03850181111562000cb257505050505062000ccc565b62000cc38260200185018662000a3a565b82955050505050505b90565b62000cda8162000978565b811462000ce657600080fd5b50565b612a308062000cf96000396000f3fe608060405234801561001057600080fd5b506004361061009d5760003560e01c80634e1273f4116100665780634e1273f41461016c578063a22cb4651461019c578063e922e3b1146101b8578063e985e9c5146101d6578063f242432a146102065761009d565b8062fdd58e146100a257806301ffc9a7146100d25780630e89341c146101025780631ccd4ceb146101325780632eb2c2d614610150575b600080fd5b6100bc60048036038101906100b79190611b73565b610222565b6040516100c99190612211565b60405180910390f35b6100ec60048036038101906100e79190611c1b565b6102eb565b6040516100f991906120b4565b60405180910390f35b61011c60048036038101906101179190611c6d565b6103cd565b60405161012991906120cf565b60405180910390f35b61013a6103fe565b6040516101479190612211565b60405180910390f35b61016a600480360381019061016591906119e9565b610403565b005b61018660048036038101906101819190611baf565b6104a4565b604051610193919061205b565b60405180910390f35b6101b660048036038101906101b19190611b37565b610655565b005b6101c061066b565b6040516101cd9190612211565b60405180910390f35b6101f060048036038101906101eb91906119ad565b610670565b6040516101fd91906120b4565b60405180910390f35b610220600480360381019061021b9190611aa8565b610704565b005b60008073ffffffffffffffffffffffffffffffffffffffff168373ffffffffffffffffffffffffffffffffffffffff161415610293576040517f08c379a000000000000000000000000000000000000000000000000000000000815260040161028a90612111565b60405180910390fd5b60008083815260200190815260200160002060008473ffffffffffffffffffffffffffffffffffffffff1673ffffffffffffffffffffffffffffffffffffffff16815260200190815260200160002054905092915050565b60007fd9b67a26000000000000000000000000000000000000000000000000000000007bffffffffffffffffffffffffffffffffffffffffffffffffffffffff1916827bffffffffffffffffffffffffffffffffffffffffffffffffffffffff191614806103b657507f0e89341c000000000000000000000000000000000000000000000000000000007bffffffffffffffffffffffffffffffffffffffffffffffffffffffff1916827bffffffffffffffffffffffffffffffffffffffffffffffffffffffff1916145b806103c657506103c5826107c8565b5b9050919050565b60606103d882610832565b6040516020016103e89190611f6c565b6040516020818303038152906040529050919050565b600181565b61040b610956565b73ffffffffffffffffffffffffffffffffffffffff168573ffffffffffffffffffffffffffffffffffffffff16148061045157506104508561044b610956565b610670565b5b610490576040517f08c379a000000000000000000000000000000000000000000000000000000000815260040161048790612131565b60405180910390fd5b61049d858585858561095e565b5050505050565b606081518351146104ea576040517f08c379a00000000000000000000000000000000000000000000000000000000081526004016104e1906121b1565b60405180910390fd5b6000835167ffffffffffffffff81111561052d577f4e487b7100000000000000000000000000000000000000000000000000000000600052604160045260246000fd5b60405190808252806020026020018201604052801561055b5781602001602082028036833780820191505090505b50905060005b845181101561064a576105f48582815181106105a6577f4e487b7100000000000000000000000000000000000000000000000000000000600052603260045260246000fd5b60200260200101518583815181106105e7577f4e487b7100000000000000000000000000000000000000000000000000000000600052603260045260246000fd5b6020026020010151610222565b82828151811061062d577f4e487b7100000000000000000000000000000000000000000000000000000000600052603260045260246000fd5b60200260200101818152505080610643906124bc565b9050610561565b508091505092915050565b610667610660610956565b8383610ccc565b5050565b600281565b6000600160008473ffffffffffffffffffffffffffffffffffffffff1673ffffffffffffffffffffffffffffffffffffffff16815260200190815260200160002060008373ffffffffffffffffffffffffffffffffffffffff1673ffffffffffffffffffffffffffffffffffffffff16815260200190815260200160002060009054906101000a900460ff16905092915050565b61070c610956565b73ffffffffffffffffffffffffffffffffffffffff168573ffffffffffffffffffffffffffffffffffffffff16148061075257506107518561074c610956565b610670565b5b610791576040517f08c379a000000000000000000000000000000000000000000000000000000000815260040161078890612131565b60405180910390fd5b61079e8585858585610e39565b5050505050565b6000808273ffffffffffffffffffffffffffffffffffffffff163b119050919050565b60007f01ffc9a7000000000000000000000000000000000000000000000000000000007bffffffffffffffffffffffffffffffffffffffffffffffffffffffff1916827bffffffffffffffffffffffffffffffffffffffffffffffffffffffff1916149050919050565b606060006001610841846110d5565b01905060008167ffffffffffffffff811115610886577f4e487b7100000000000000000000000000000000000000000000000000000000600052604160045260246000fd5b6040519080825280601f01601f1916602001820160405280156108b85781602001600182028036833780820191505090505b509050600082602001820190505b60011561094b578080600190039150507f3031323334353637383961626364656600000000000000000000000000000000600a86061a8153600a8581610935577f4e487b7100000000000000000000000000000000000000000000000000000000600052601260045260246000fd5b04945060008514156109465761094b565b6108c6565b819350505050919050565b600033905090565b81518351146109a2576040517f08c379a0000000000000000000000000000000000000000000000000000000008152600401610999906121d1565b60405180910390fd5b600073ffffffffffffffffffffffffffffffffffffffff168473ffffffffffffffffffffffffffffffffffffffff161415610a12576040517f08c379a0000000000000000000000000000000000000000000000000000000008152600401610a0990612151565b60405180910390fd5b6000610a1c610956565b9050610a2c81878787878761130c565b60005b8451811015610c29576000858281518110610a73577f4e487b7100000000000000000000000000000000000000000000000000000000600052603260045260246000fd5b602002602001015190506000858381518110610ab8577f4e487b7100000000000000000000000000000000000000000000000000000000600052603260045260246000fd5b60200260200101519050600080600084815260200190815260200160002060008b73ffffffffffffffffffffffffffffffffffffffff1673ffffffffffffffffffffffffffffffffffffffff16815260200190815260200160002054905081811015610b59576040517f08c379a0000000000000000000000000000000000000000000000000000000008152600401610b5090612171565b60405180910390fd5b81810360008085815260200190815260200160002060008c73ffffffffffffffffffffffffffffffffffffffff1673ffffffffffffffffffffffffffffffffffffffff168152602001908152602001600020819055508160008085815260200190815260200160002060008b73ffffffffffffffffffffffffffffffffffffffff1673ffffffffffffffffffffffffffffffffffffffff1681526020019081526020016000206000828254610c0e919061237f565b9250508190555050505080610c22906124bc565b9050610a2f565b508473ffffffffffffffffffffffffffffffffffffffff168673ffffffffffffffffffffffffffffffffffffffff168273ffffffffffffffffffffffffffffffffffffffff167f4a39dc06d4c0dbc64b70af90fd698a233a518aa5d07e595d983b8c0526c8f7fb8787604051610ca092919061207d565b60405180910390a4610cb6818787878787611314565b610cc481878787878761131c565b505050505050565b8173ffffffffffffffffffffffffffffffffffffffff168373ffffffffffffffffffffffffffffffffffffffff161415610d3b576040517f08c379a0000000000000000000000000000000000000000000000000000000008152600401610d3290612191565b60405180910390fd5b80600160008573ffffffffffffffffffffffffffffffffffffffff1673ffffffffffffffffffffffffffffffffffffffff16815260200190815260200160002060008473ffffffffffffffffffffffffffffffffffffffff1673ffffffffffffffffffffffffffffffffffffffff16815260200190815260200160002060006101000a81548160ff0219169083151502179055508173ffffffffffffffffffffffffffffffffffffffff168373ffffffffffffffffffffffffffffffffffffffff167f17307eab39ab6107e8899845ad3d59bd9653f200f220920489ca2b5937696c3183604051610e2c91906120b4565b60405180910390a3505050565b600073ffffffffffffffffffffffffffffffffffffffff168473ffffffffffffffffffffffffffffffffffffffff161415610ea9576040517f08c379a0000000000000000000000000000000000000000000000000000000008152600401610ea090612151565b60405180910390fd5b6000610eb3610956565b90506000610ec085611503565b90506000610ecd85611503565b9050610edd83898985858961130c565b600080600088815260200190815260200160002060008a73ffffffffffffffffffffffffffffffffffffffff1673ffffffffffffffffffffffffffffffffffffffff16815260200190815260200160002054905085811015610f74576040517f08c379a0000000000000000000000000000000000000000000000000000000008152600401610f6b90612171565b60405180910390fd5b85810360008089815260200190815260200160002060008b73ffffffffffffffffffffffffffffffffffffffff1673ffffffffffffffffffffffffffffffffffffffff168152602001908152602001600020819055508560008089815260200190815260200160002060008a73ffffffffffffffffffffffffffffffffffffffff1673ffffffffffffffffffffffffffffffffffffffff1681526020019081526020016000206000828254611029919061237f565b925050819055508773ffffffffffffffffffffffffffffffffffffffff168973ffffffffffffffffffffffffffffffffffffffff168573ffffffffffffffffffffffffffffffffffffffff167fc3d58168c5ae7397731d063d5bbf3d657854427343f4c083240f7aacaa2d0f628a8a6040516110a692919061222c565b60405180910390a46110bc848a8a86868a611314565b6110ca848a8a8a8a8a6115c9565b505050505050505050565b600080600090507a184f03e93ff9f4daa797ed6e38ed64bf6a1f0100000000000000008310611159577a184f03e93ff9f4daa797ed6e38ed64bf6a1f010000000000000000838161114f577f4e487b7100000000000000000000000000000000000000000000000000000000600052601260045260246000fd5b0492506040810190505b6d04ee2d6d415b85acef810000000083106111bc576d04ee2d6d415b85acef810000000083816111b2577f4e487b7100000000000000000000000000000000000000000000000000000000600052601260045260246000fd5b0492506020810190505b662386f26fc10000831061121157662386f26fc100008381611207577f4e487b7100000000000000000000000000000000000000000000000000000000600052601260045260246000fd5b0492506010810190505b6305f5e1008310611260576305f5e1008381611256577f4e487b7100000000000000000000000000000000000000000000000000000000600052601260045260246000fd5b0492506008810190505b61271083106112ab5761271083816112a1577f4e487b7100000000000000000000000000000000000000000000000000000000600052601260045260246000fd5b0492506004810190505b606483106112f457606483816112ea577f4e487b7100000000000000000000000000000000000000000000000000000000600052601260045260246000fd5b0492506002810190505b600a8310611303576001810190505b80915050919050565b505050505050565b505050505050565b61133b8473ffffffffffffffffffffffffffffffffffffffff166107a5565b156114fb578373ffffffffffffffffffffffffffffffffffffffff1663bc197c8187878686866040518663ffffffff1660e01b8152600401611381959493929190611f99565b602060405180830381600087803b15801561139b57600080fd5b505af19250505080156113cc57506040513d601f19601f820116820180604052508101906113c99190611c44565b60015b611472576113d8612563565b806308c379a0141561143557506113ed612908565b806113f85750611437565b806040517f08c379a000000000000000000000000000000000000000000000000000000000815260040161142c91906120cf565b60405180910390fd5b505b6040517f08c379a0000000000000000000000000000000000000000000000000000000008152600401611469906121f1565b60405180910390fd5b63bc197c8160e01b7bffffffffffffffffffffffffffffffffffffffffffffffffffffffff1916817bffffffffffffffffffffffffffffffffffffffffffffffffffffffff1916146114f9576040517f08c379a00000000000000000000000000000000000000000000000000000000081526004016114f0906120f1565b60405180910390fd5b505b505050505050565b60606000600167ffffffffffffffff811115611548577f4e487b7100000000000000000000000000000000000000000000000000000000600052604160045260246000fd5b6040519080825280602002602001820160405280156115765781602001602082028036833780820191505090505b50905082816000815181106115b4577f4e487b7100000000000000000000000000000000000000000000000000000000600052603260045260246000fd5b60200260200101818152505080915050919050565b6115e88473ffffffffffffffffffffffffffffffffffffffff166107a5565b156117a8578373ffffffffffffffffffffffffffffffffffffffff1663f23a6e6187878686866040518663ffffffff1660e01b815260040161162e959493929190612001565b602060405180830381600087803b15801561164857600080fd5b505af192505050801561167957506040513d601f19601f820116820180604052508101906116769190611c44565b60015b61171f57611685612563565b806308c379a014156116e2575061169a612908565b806116a557506116e4565b806040517f08c379a00000000000000000000000000000000000000000000000000000000081526004016116d991906120cf565b60405180910390fd5b505b6040517f08c379a0000000000000000000000000000000000000000000000000000000008152600401611716906121f1565b60405180910390fd5b63f23a6e6160e01b7bffffffffffffffffffffffffffffffffffffffffffffffffffffffff1916817bffffffffffffffffffffffffffffffffffffffffffffffffffffffff1916146117a6576040517f08c379a000000000000000000000000000000000000000000000000000000000815260040161179d906120f1565b60405180910390fd5b505b505050505050565b60006117c36117be8461227a565b612255565b905080838252602082019050828560208602820111156117e257600080fd5b60005b8581101561181257816117f888826118c6565b8452602084019350602083019250506001810190506117e5565b5050509392505050565b600061182f61182a846122a6565b612255565b9050808382526020820190508285602086028201111561184e57600080fd5b60005b8581101561187e57816118648882611998565b845260208401935060208301925050600181019050611851565b5050509392505050565b600061189b611896846122d2565b612255565b9050828152602081018484840111156118b357600080fd5b6118be848285612449565b509392505050565b6000813590506118d58161299e565b92915050565b600082601f8301126118ec57600080fd5b81356118fc8482602086016117b0565b91505092915050565b600082601f83011261191657600080fd5b813561192684826020860161181c565b91505092915050565b60008135905061193e816129b5565b92915050565b600081359050611953816129cc565b92915050565b600081519050611968816129cc565b92915050565b600082601f83011261197f57600080fd5b813561198f848260208601611888565b91505092915050565b6000813590506119a7816129e3565b92915050565b600080604083850312156119c057600080fd5b60006119ce858286016118c6565b92505060206119df858286016118c6565b9150509250929050565b600080600080600060a08688031215611a0157600080fd5b6000611a0f888289016118c6565b9550506020611a20888289016118c6565b945050604086013567ffffffffffffffff811115611a3d57600080fd5b611a4988828901611905565b935050606086013567ffffffffffffffff811115611a6657600080fd5b611a7288828901611905565b925050608086013567ffffffffffffffff811115611a8f57600080fd5b611a9b8882890161196e565b9150509295509295909350565b600080600080600060a08688031215611ac057600080fd5b6000611ace888289016118c6565b9550506020611adf888289016118c6565b9450506040611af088828901611998565b9350506060611b0188828901611998565b925050608086013567ffffffffffffffff811115611b1e57600080fd5b611b2a8882890161196e565b9150509295509295909350565b60008060408385031215611b4a57600080fd5b6000611b58858286016118c6565b9250506020611b698582860161192f565b9150509250929050565b60008060408385031215611b8657600080fd5b6000611b94858286016118c6565b9250506020611ba585828601611998565b9150509250929050565b60008060408385031215611bc257600080fd5b600083013567ffffffffffffffff811115611bdc57600080fd5b611be8858286016118db565b925050602083013567ffffffffffffffff811115611c0557600080fd5b611c1185828601611905565b9150509250929050565b600060208284031215611c2d57600080fd5b6000611c3b84828501611944565b91505092915050565b600060208284031215611c5657600080fd5b6000611c6484828501611959565b91505092915050565b600060208284031215611c7f57600080fd5b6000611c8d84828501611998565b91505092915050565b6000611ca28383611f4e565b60208301905092915050565b611cb7816123d5565b82525050565b6000611cc882612313565b611cd28185612341565b9350611cdd83612303565b8060005b83811015611d0e578151611cf58882611c96565b9750611d0083612334565b925050600181019050611ce1565b5085935050505092915050565b611d24816123e7565b82525050565b6000611d358261231e565b611d3f8185612352565b9350611d4f818560208601612458565b611d5881612585565b840191505092915050565b6000611d6e82612329565b611d788185612363565b9350611d88818560208601612458565b611d9181612585565b840191505092915050565b6000611da782612329565b611db18185612374565b9350611dc1818560208601612458565b80840191505092915050565b6000611dda602883612363565b9150611de5826125a3565b604082019050919050565b6000611dfd602a83612363565b9150611e08826125f2565b604082019050919050565b6000611e20602e83612363565b9150611e2b82612641565b604082019050919050565b6000611e43602583612363565b9150611e4e82612690565b604082019050919050565b6000611e66602a83612363565b9150611e71826126df565b604082019050919050565b6000611e89600583612374565b9150611e948261272e565b600582019050919050565b6000611eac605983612374565b9150611eb782612757565b605982019050919050565b6000611ecf602983612363565b9150611eda826127cc565b604082019050919050565b6000611ef2602983612363565b9150611efd8261281b565b604082019050919050565b6000611f15602883612363565b9150611f208261286a565b604082019050919050565b6000611f38603483612363565b9150611f43826128b9565b604082019050919050565b611f578161243f565b82525050565b611f668161243f565b82525050565b6000611f7782611e9f565b9150611f838284611d9c565b9150611f8e82611e7c565b915081905092915050565b600060a082019050611fae6000830188611cae565b611fbb6020830187611cae565b8181036040830152611fcd8186611cbd565b90508181036060830152611fe18185611cbd565b90508181036080830152611ff58184611d2a565b90509695505050505050565b600060a0820190506120166000830188611cae565b6120236020830187611cae565b6120306040830186611f5d565b61203d6060830185611f5d565b818103608083015261204f8184611d2a565b90509695505050505050565b600060208201905081810360008301526120758184611cbd565b905092915050565b600060408201905081810360008301526120978185611cbd565b905081810360208301526120ab8184611cbd565b90509392505050565b60006020820190506120c96000830184611d1b565b92915050565b600060208201905081810360008301526120e98184611d63565b905092915050565b6000602082019050818103600083015261210a81611dcd565b9050919050565b6000602082019050818103600083015261212a81611df0565b9050919050565b6000602082019050818103600083015261214a81611e13565b9050919050565b6000602082019050818103600083015261216a81611e36565b9050919050565b6000602082019050818103600083015261218a81611e59565b9050919050565b600060208201905081810360008301526121aa81611ec2565b9050919050565b600060208201905081810360008301526121ca81611ee5565b9050919050565b600060208201905081810360008301526121ea81611f08565b9050919050565b6000602082019050818103600083015261220a81611f2b565b9050919050565b60006020820190506122266000830184611f5d565b92915050565b60006040820190506122416000830185611f5d565b61224e6020830184611f5d565b9392505050565b600061225f612270565b905061226b828261248b565b919050565b6000604051905090565b600067ffffffffffffffff82111561229557612294612534565b5b602082029050602081019050919050565b600067ffffffffffffffff8211156122c1576122c0612534565b5b602082029050602081019050919050565b600067ffffffffffffffff8211156122ed576122ec612534565b5b6122f682612585565b9050602081019050919050565b6000819050602082019050919050565b600081519050919050565b600081519050919050565b600081519050919050565b6000602082019050919050565b600082825260208201905092915050565b600082825260208201905092915050565b600082825260208201905092915050565b600081905092915050565b600061238a8261243f565b91506123958361243f565b9250827fffffffffffffffffffffffffffffffffffffffffffffffffffffffffffffffff038211156123ca576123c9612505565b5b828201905092915050565b60006123e08261241f565b9050919050565b60008115159050919050565b60007fffffffff0000000000000000000000000000000000000000000000000000000082169050919050565b600073ffffffffffffffffffffffffffffffffffffffff82169050919050565b6000819050919050565b82818337600083830152505050565b60005b8381101561247657808201518184015260208101905061245b565b83811115612485576000848401525b50505050565b61249482612585565b810181811067ffffffffffffffff821117156124b3576124b2612534565b5b80604052505050565b60006124c78261243f565b91507fffffffffffffffffffffffffffffffffffffffffffffffffffffffffffffffff8214156124fa576124f9612505565b5b600182019050919050565b7f4e487b7100000000000000000000000000000000000000000000000000000000600052601160045260246000fd5b7f4e487b7100000000000000000000000000000000000000000000000000000000600052604160045260246000fd5b600060033d11156125825760046000803e61257f600051612596565b90505b90565b6000601f19601f8301169050919050565b60008160e01c9050919050565b7f455243313135353a204552433131353552656365697665722072656a6563746560008201527f6420746f6b656e73000000000000000000000000000000000000000000000000602082015250565b7f455243313135353a2061646472657373207a65726f206973206e6f742061207660008201527f616c6964206f776e657200000000000000000000000000000000000000000000602082015250565b7f455243313135353a2063616c6c6572206973206e6f7420746f6b656e206f776e60008201527f6572206f7220617070726f766564000000000000000000000000000000000000602082015250565b7f455243313135353a207472616e7366657220746f20746865207a65726f20616460008201527f6472657373000000000000000000000000000000000000000000000000000000602082015250565b7f455243313135353a20696e73756666696369656e742062616c616e636520666f60008201527f72207472616e7366657200000000000000000000000000000000000000000000602082015250565b7f2e6a736f6e000000000000000000000000000000000000000000000000000000600082015250565b7f68747470733a2f2f6261667962656964356269376f3636706a353577716f777060008201527f6d67337a6637336c68693778657069347233326775626e32616363633765656360208201527f746f652e697066732e6e667473746f726167652e6c696e6b2f00000000000000604082015250565b7f455243313135353a2073657474696e6720617070726f76616c2073746174757360008201527f20666f722073656c660000000000000000000000000000000000000000000000602082015250565b7f455243313135353a206163636f756e747320616e6420696473206c656e67746860008201527f206d69736d617463680000000000000000000000000000000000000000000000602082015250565b7f455243313135353a2069647320616e6420616d6f756e7473206c656e6774682060008201527f6d69736d61746368000000000000000000000000000000000000000000000000602082015250565b7f455243313135353a207472616e7366657220746f206e6f6e2d4552433131353560008201527f526563656976657220696d706c656d656e746572000000000000000000000000602082015250565b600060443d10156129185761299b565b612920612270565b60043d036004823e80513d602482011167ffffffffffffffff8211171561294857505061299b565b808201805167ffffffffffffffff811115612966575050505061299b565b80602083010160043d03850181111561298357505050505061299b565b6129928260200185018661248b565b82955050505050505b90565b6129a7816123d5565b81146129b257600080fd5b50565b6129be816123e7565b81146129c957600080fd5b50565b6129d5816123f3565b81146129e057600080fd5b50565b6129ec8161243f565b81146129f757600080fd5b5056fea26469706673582212208a8838c2157a464d978156eb417f3bb820847fd4376555d052efa82da55fa27864736f6c6343000801003368747470733a2f2f6261667962656964356269376f3636706a353577716f77706d67337a6637336c68693778657069347233326775626e326163636337656563746f652e697066732e6e667473746f726167652e6c696e6b2f7b69647d2e6a736f6e",
  "linkReferences": {},
  "deployedLinkReferences": {}
}